:020000040800F2
:10000000F83A00209D010008471A00084D16000824
:10001000451A000859020008A92500080000000040
:1000200000000000000000000000000005010008C2
:100030005B0200080000000049010008852000085C
:10004000B7010008B7010008B7010008B7010008B0
:10005000B7010008B7010008B7010008B7010008A0
:10006000B7010008B7010008B7010008B701000890
:10007000B7010008B7010008B7010008B701000880
:10008000B7010008B7010008B7010008B701000870
:10009000B7010008B7010008B7010008B701000860
:1000A000B7010008B7010008B7010008B701000850
:1000B000B7010008B701000801210008B7010008D6
:1000C000B7010008B7010008B7010008B701000830
:1000D000B70100089D250008B7010008B701000816
:1000E000B7010008B7010008B7010008DFF810D019
:1000F00000F0A0F80048004779270008AFF300801F
:10010000F83A0020224B19680868B0E8F00F80F335
:100110000988BFF36F8F4FF0000080F311884EF015
:100120000D0E70470000000006480068006880F36C
:10013000088862B661B6BFF34F8FBFF36F8F00DFE1
:1001400000BF00BF08ED00E0EFF30980BFF36F8F41
:100150000F4B1A6820E9F00F106008B54FF05000FF
:1001600080F31188BFF34F8FBFF36F8F03F072FAE4
:100170004FF0000080F31188BDE808401968086856
:10018000B0E8F00F80F30988BFF36F8F704700BFAE
:1001900038000020EFF305807047000006488047D4
:1001A00006480047FEE7FEE7FEE7FEE7FEE7FEE75C
:1001B000FEE7FEE7FEE7FEE7FD200008ED00000891
:1001C00040EA01039B0703D009E008C9121F08C0D9
:1001D000042AFAD203E011F8013B00F8013B521E59
:1001E000F9D27047D2B201E000F8012B491EFBD2D0
:1001F00070470022F6E710B513460A460446194632
:10020000FFF7F0FF204610BD30B50B460146002039
:100210002022012409E021FA02F59D4205D303FAC8
:1002200002F5491B04FA02F52844151EA2F1010249
:10023000F1DC30BD064C074D06E0E06840F00103FC
:1002400094E8070098471034AC42F6D3FFF752FF0A
:10025000244D0008444D0008FEE7704772B6FEE7E3
:1002600010B590F821100022022905D004218163E5
:1002700080F82020012010BD01680B6823F00E03D8
:100280000B6001680B6823F001030B6090F84030AD
:10029000C46B012101FA03F3636080F8211080F838
:1002A0002020104610BD000010B590F82110002449
:1002B000022903D00421816301243DE001680A681A
:1002C00022F00E020A6001680A6822F001020A6048
:1002D0001A4A0168914201D1012121E0174A1432E2
:1002E000914201D110211BE0144A2832914201D1E0
:1002F000891515E0114A3C32914201D189140FE071
:100300000E4A5032914202D14FF4803108E00B4A3C
:100310006432914202D14FF4801101E04FF08071BC
:10032000064A083A5160012180F82110002180F826
:100330002010416B01B18847204610BD08000240E3
:1003400070B5044600F008F90546601C02D0044868
:100350000078044400F000F9401BA042FAD370BDBD
:10036000280000202DE9F84FDFF8B8910024A9F10A
:10037000040B23460F2709F1040AABF1040EC9E070
:100380000125A5402A40AA427DD1674ED1F804C07C
:10039000ACEB0608B44532D014DCBCF1030F3AD004
:1003A00009DCBCF1000F2AD0BCF1010F1CD0BCF15C
:1003B000020F31D11DE0BCF1110F17D0BCF1120FAB
:1003C0002AD119E0B8F5881F19D006DCB8F5803FAE
:1003D00015D0B8F5801F1FD111E0B8F5001F0ED061
:1003E000B8F5041F18D10AE0CB6815E0CB681B1DD7
:1003F00012E0CB6808330FE0CB680C330CE08B685D
:100400002BB1012B4FF0080303D0456104E0042316
:1004100002E0056100E00023FF2A01D8064601E062
:1004200000F104064FEA840501D9A5F12005D6F8AC
:10043000008007FA05FC28EA0C0803FA05F548EAEB
:100440000508C6F800804D68ED0062D5374DAE69ED
:1004500046F00106AE61AD6924F0030605F0010522
:100460000095334D06EB050CDCF80850A607360F57
:1004700007FA06F825EA0805DFF8B880404503D1F9
:100480004FF0000817E044E0DFF8AC80404502D1AF
:100490004FF001080FE0DFF8A480404502D14FF093
:1004A000020808E0DFF89880404502D14FF00308C9
:1004B00001E04FF0040808FA06F848EA0508CCF80D
:1004C00008804D68D9F80060ED024D4601D516430D
:1004D00000E096432E604D68DAF80060AD025546A4
:1004E00001D5164300E096432E604D68DBF80060AE
:1004F000AD035D4601D5164300E096432E604D687E
:10050000DEF80060ED03754601D5164300E0964322
:100510002E60641C0D682A46E5407FF431AFBDE8CB
:10052000F88F000008040140000011100010024084
:100530000000014000080140000C01400010014093
:10054000001401408068084000D0012070470AB1C3
:10055000016170470904FBE70148806870470000AB
:1005600028000020024881680278114481607047A9
:1005700028000020074810B5016841F01001016013
:10058000032000F0A7F8012000F006F800F050F872
:10059000002010BD0020024030B505461F4887B03E
:1005A000C16941F00401C161C06906A900F00400FD
:1005B000009001A800F036F90498B0B100F052F9AB
:1005C00040001749174AB0FBF1F11748491E026075
:1005D000416040F2E7320021C0E90321816081617E
:1005E00000F076FB040003D015E000F03BF9E8E7EB
:1005F0000D4800F0C7FB04000DD11E2000F03CF8B0
:10060000102D07D2002229461E2000F043F807488B
:10061000056000E0012407B0204630BD0010024014
:1006200040420F0000080040DC0100202C000020A8
:100630000F4808B5816941F001018161816901F0CC
:1006400001010091C16941F08051C161C06900227E
:1006500000F0805000900F21901E00F01BF805481C
:10066000416821F0E06141F00071416008BD000087
:100670000010024000000140002809DB00F01F02CA
:10068000012191404009800000F1E020C0F80011F4
:1006900070470000F0B40E4B1B680C46C3F30223F6
:1006A000C3F10705042D00D90425191D072901D21E
:1006B000002300E0DB1E012606FA05F1491E214059
:1006C00099409E40761E16403143F0BC01F07EBF3B
:1006D0000CED00E0064900F0070208684FF6FF0342
:1006E000184040EA0220034A1043086070470000A7
:1006F0000CED00E00000FA052DE9F0470F4605007B
:1007000061D0434E306800F00700B84209D230682B
:1007100020F0070038433060306800F00700B8422E
:1007200051D128683B4C810712D5400703D560683A
:1007300040F4E06060602878000703D5606840F40A
:10074000605060606068A96820F0F0000843606055
:100750002878C00728D06868012810D021680228AE
:1007600010D0890700292EDA616821F003010143C6
:100770006160FFF7F1FE804641F288390DE02168A3
:100780008903EFE78901EDE7FFF7E6FEA0EB08013B
:10079000494502D90320BDE8F0876068696800F028
:1007A0000C00B0EB810FEFD1306800F00700B842C9
:1007B0000BD9306820F0070038433060306800F013
:1007C0000700B84201D00120E5E72878400705D5A9
:1007D0006068E96820F4E0600843606028780007FA
:1007E00006D56068296920F4605040EAC100606065
:1007F00000F058F86168084AC1F30311515CC84021
:100800000649086006480068FFF7C6FE0020C2E7F8
:100810000020024000100240A24C000834000020DA
:100820002C0000200F2202600C4A536803F00303DF
:100830004360536803F0F0038360536803F4E0639C
:10084000C36052684FF4E06303EAD20202610448D5
:10085000006800F0070008607047000000100240C8
:10086000002002400448054900684968044AC1F371
:100870000221515CC8407047340000200010024043
:10088000B24C00080448054900684968044AC1F3AD
:10089000C221515CC8407047340000200010024063
:1008A000B24C00080E4A51680E4801F00C03042BAC
:1008B00011D0082B0FD10C48C1F38343C903C05C8E
:1008C0000AD55168084AC1F34041921E515C054A5D
:1008D0005043B0FBF1F070470449484370470000B3
:1008E0000010024000127A00924C000800093D00FE
:1008F0002DE9F84F040070D02078C04DC00749D0D2
:100900006868C0F38100012807D06868C0F38100DF
:10091000022809D16868C00306D52868800339D544
:1009200060680028E7D035E06068B0F5803F0BD004
:1009300010B1B0F5A02F11D0286820F480302860C5
:10094000286820F4802002E0286840F48030286085
:10095000606890B1FFF700FE06460AE0286840F4A0
:1009600080202860F0E700BFFFF7F6FD801B6428B9
:1009700073D828688003F7D50CE0FFF7EDFD064635
:1009800005E000BFFFF7E8FD801B6428F0D8286869
:100990008003F7D420789A4E80074FF001094FF07A
:1009A000000839D5686810F00C0F07D06868C0F3EC
:1009B0008100022809D16868C00306D4286880072E
:1009C00014D52069012808D110E02069B0B1C6F81B
:1009D0000090FFF7C1FD074605E00AE1FFF7BCFD07
:1009E000C01B0228C4D828688007F7D52868616929
:1009F00020F0F80040EAC10028600DE0C6F8008051
:100A0000FFF7AAFD074604E0FFF7A6FDC01B02287A
:100A100023D828688007F7D4207800072CD5794898
:100A2000A169D9B1C0F80090FFF796FD074604E030
:100A3000FFF792FDC01B02280FD8686A8007F7D520
:100A400071484FF4FA510068B0FBF1F0009000BF1C
:100A50000098411E0091FAD20EE080E0C0F80080BC
:100A6000FFF77AFD074604E0FFF776FDC01B02287A
:100A700075D8686A8007F7D42078400760D5E869A0
:100A80000027C00008D4E86940F08050E861E869B8
:100A9000012700F0805000905C480168C90513D41C
:100AA0000168834641F480710160FFF755FD82467D
:100AB00006E000BFFFF750FDA0EB0A0064284ED807
:100AC000DBF80000C005F5D5E06801280AD008B1C0
:100AD000052813D0286A20F001002862286A20F037
:100AE000040002E0286A40F001002862E06841F258
:100AF000883B98B1FFF730FD82460BE0286A40F052
:100B000004002862EEE700BFFFF726FDA0EB0A0114
:100B100059455AD8286A8007F6D50CE0FFF71CFD26
:100B2000824605E0FFF718FDA0EB0A0159454CD8B5
:100B3000286A8007F6D41FB1E86920F08050E86188
:100B4000E06988B36968C1F38101022944D00228B1
:100B5000C6F8608004D0FFF7FFFC044638E034E0BC
:100B6000FFF7FAFC074604E0FFF7F6FCC01B02287B
:100B70002BD828688001F7D4206AB0F5803F05D1D2
:100B80006868A16820F4003008436860D4E908016F
:100B90000843696821F4741108436860C6F86090DE
:100BA000FFF7DAFC044606E025E000BFFFF7D4FCBF
:100BB000001B022809D828688001F7D51BE000BF78
:100BC000FFF7CAFC001B022802D90320BDE8F88FFA
:100BD00028688001F4D40EE00128F7D06868226A02
:100BE00000F48031914204D1616A00F470108842AF
:100BF00001D00120EAE70020E8E7000000100240F1
:100C00000000424280044242340000200070004054
:100C10007047704710B590F83C20012A22D001227D
:100C200080F83C20CA688C6822F4407222434C68E9
:100C300022F4806222430C6822F4006222430C6991
:100C400022F4805222434C6922F400522243C969A3
:100C5000002322F480420A4301684A6480F83C3051
:100C6000002010BD022010BD70B590F83C20012A74
:100C700026D0012480F83C40022280F83D20036801
:100C80005A689D6822F070060A6832435A600D4B1C
:100C900002689A4208D0B2F1804F05D00A4B9A42BE
:100CA00002D00A4B9A4204D1496825F080031943C7
:100CB000916080F83D40002180F83C10084670BDEE
:100CC000022070BD002C01400004004000080040DC
:100CD00010B5040003D094F83D0010B107E00120E6
:100CE00010BD002084F83C00204600F01FF80220D0
:100CF00084F83D00211D206801F008FA012084F8E5
:100D0000460084F83E0084F83F0084F8400084F8F0
:100D1000410084F8420084F8430084F8440084F8D9
:100D2000450084F83D00002010BD000008B5124ABF
:100D300001681248914207D1816941F400618161E3
:100D4000806900F4006014E0B1F1804F0AD00C4AD1
:100D500091420FD1C16941F00201C161C06900F047
:100D6000020006E0C16941F00101C161C06900F003
:100D70000100009008BD0000002C0140001002405E
:100D80000004004090F83D10012901D00120704777
:100D9000022180F83D100168CA6842F00102CA6071
:100DA00000680B49884208D0B0F1804F05D009494E
:100DB000884202D00849884204D1816801F00701C5
:100DC000062903D0016841F001010160002070474D
:100DD000002C0140000400400008004070B50446AB
:100DE00090F83C000025012817D0012684F83C60CB
:100DF000022084F83D002068826822F0770222F405
:100E00007F4282600868502838D00DDC20284FD0FF
:100E100005DC90B3102811D14AE0022070BD3028C3
:100E200046D040280AD13BE060282FD070280DD052
:100E3000B0F5805F03D0B0F5005F12D0012584F8D3
:100E40003D60002084F83C00284670BDCB68D1E9A5
:100E50000121206801F0A3F92068816841F0770141
:100E600009E0CB68D1E90121206801F098F92068F8
:100E7000816841F480418160E1E719E0CA6849680E
:100E8000206801F041FA5021206806E0CA684968EC
:100E9000206801F04AFA6021206801F08AF9CEE763
:100EA000CA684968206801F02FFA40212068F4E7F9
:100EB000226801461046F0E770472DE9F0410446EC
:100EC0000068C66805694FF00007A90713D5B10788
:100ED00011D5F91E01610120207720688069800703
:100EE000204602D0FFF7E8FF04E000F0C3F82046F8
:100EF00000F055F92777680716D5700714D52168D3
:100F00006FF004000861022020772068806910F4E7
:100F1000407F204602D0FFF7CFFF04E000F0AAF8A0
:100F2000204600F03CF92777280715D5300713D560
:100F300021686FF008000861042020772068C069EC
:100F40008007204602D0FFF7B7FF04E000F092F8D8
:100F5000204600F024F92777E80616D5F00614D5C8
:100F600021686FF010000861082020772068C069B0
:100F700010F4407F204602D0FFF79EFF04E000F00F
:100F800079F8204600F00BF92777E80708D0F0073A
:100F900006D021686FF001000861204600F04EF98C
:100FA000280608D5300606D521686FF08000086154
:100FB0002046FFF72DFE680608D5700606D5216885
:100FC0006FF040000861204600F042F9A8060AD5FB
:100FD000B00608D521686FF0200008612046BDE802
:100FE000F041FFF716BEBDE8F081000010B586B0F5
:100FF000002100910191029103911A4C03681A4A51
:1010000002211A48A34209D1936943F00403936172
:10101000926902F00402049282150EE0B3F1804F4F
:101020000FD0134CA3421AD1936943F00403936188
:10103000926902F0040204924022CDE9002103915A
:101040000AE0936943F0040393619269009102F00E
:1010500004020191CDE903126946FFF783F906B056
:1010600010BD0000002C01400010024000080140AB
:1010700000040040704770B5044690F83C0000261C
:101080000D4601280FD0012084F83C006AB1042AE3
:101090001DD0082A2FD00C2A3FD00126002084F82A
:1010A0003C00304670BD022070BD206801F08AF817
:1010B0002068816941F0080181612068816921F01F
:1010C00004018161206881692A69114311E0206867
:1010D00001F0A0F82068816941F400618161206815
:1010E000816921F480618161206881692A6941EA0E
:1010F00002218161D2E7206801F0B8F82068C16957
:1011000041F00801C1612068C16921F00401C16199
:101110002068C1692A69114311E0206801F0D2F802
:101120002068C16941F40061C1612068C16921F48E
:101130008061C1612068C1692A6941EA0221C161F7
:10114000ACE710B5040003D094F83D0010B107E0FF
:10115000012010BD002084F83C00204600F01EF85D
:10116000022084F83D00211D206800F0CFFF0120FF
:1011700084F8460084F83E0084F83F0084F840007C
:1011800084F8410084F8420084F8430084F8440065
:1011900084F8450084F83D00002010BD704770477A
:1011A00010B50446022249B104290ED0082913D0F3
:1011B00094F84100012816D0012010BD94F83E009B
:1011C0000128F9D184F83E200FE094F83F0001286F
:1011D000F2D184F83F2008E094F840000128EBD1D8
:1011E00084F8402001E084F841200122206800F0CA
:1011F000C9FF0F492068884203D1426C42F4004283
:1012000042642068884208D0B0F1804F05D0094977
:10121000884202D00849884204D1816801F0070160
:10122000062903D0016841F001010160002010BDD2
:10123000002C014000040040000800400068034901
:10124000884201D1FFF78EB97047000000080040C6
:101250007047704770470000F8B501680446086899
:10126000CA684B6910F00F0F4FF0000559D003F01A
:10127000010602F49077374365D0C10705D0D10548
:1012800003D5616C41F001016164410705D5D907BF
:1012900003D0616C41F002016164810705D5D90773
:1012A00003D0616C41F004016164010707D502F0CD
:1012B0002001314303D0616C41F008016164616C2D
:1012C00000293AD0800604D5900602D5204601F0C8
:1012D0006DF820684069616CC0F38010090700D484
:1012E00060B3204601F03BF820684069400621D5F4
:1012F0002068143050E8001F21F0400140E800123F
:10130000002AF5D1E06BA8B16D494163E06BFEF7AF
:10131000CBFF002811D0E06B416B01B0BDE8F0407D
:10132000084783060FD593060DD52046BDE8F84043
:1013300001F03CB82046FFF78DFFF8BD2046FFF7CF
:1013400089FF6564F8BD266B2023012E7CD1C6067B
:101350007AD5D60678D508684868009048694FF075
:101360000206400640D5E16B086840680004000CA6
:10137000E8D0A28D8242E5D9E085886920282DD069
:1013800020680C3050E8001F21F4807140E8001202
:10139000002AF5D12068143050E8001F21F0010127
:1013A00040E80012002AF5D12068143050E8001FF0
:1013B00021F0400140E80012002AF5D184F84230C3
:1013C000256320680C3050E8001F21F0100140E830
:1013D0000012002AF5D1E06BFEF742FF6663A08D94
:1013E000E18D401A81B22AE0A08DE18D401A81B2D0
:1013F000E08D0028A6D00029A4D022680C3252E843
:10140000000F20F4907042E80007002FF5D120680B
:10141000143050E8002F22F0010240E80027002F8E
:10142000F5D184F84230256320680C3050E8002F55
:1014300022F0100240E80023002BF5D1666320461D
:10144000FFF707FFF8BDFFE705062BD5150629D5E1
:1014500094F841002128F5D1A068B0F5805F01D152
:101460002069B0B1206A411C21622168007848607F
:10147000E08C401E0004000CE084E3D12068C168C9
:1014800021F08001C1602068C16841F04001C16065
:10149000D8E7206A0088C0F308004860206A801CF2
:1014A0002062E5E74006CDD55006CBD5CA68204678
:1014B00022F04002CA6084F8413000F0C6F8C1E76B
:1014C0004F23000870B5040004D094F841000025B3
:1014D00010B106E0012070BD84F84050204600F0B5
:1014E00023F8242084F841002068C16821F40051C9
:1014F000C160204600F0BCFF2068016921F49041E2
:1015000001612068416921F02A0141612068C168B8
:1015100041F40051C1606564202084F8410084F8E2
:1015200042006563002070BD30B585B00024009492
:101530000194029403940068184988422CD11848F9
:10154000816941F480418161816901F480410491A4
:10155000816941F0040181618069124D00F004004D
:1015600004904FF40070009002200190032003903B
:1015700069462846FEF7F6FE2815CDE900046946BF
:1015800028460294FEF7EEFE002205212520FFF7F3
:1015900081F82520FFF770F805B030BD0038014014
:1015A000001002400008014070472DE9F84304464E
:1015B00090F84100984616460D46202802D0022099
:1015C000BDE8F88385B17EB100206064212084F8F5
:1015D0004100FEF7C1FFA6848146E684A06820276B
:1015E000B0F5805F02D003E00120E9E7206910B187
:1015F0002E4600250EE000260CE08021204600F05B
:1016000093FFA8B9C6B116F8010B21684860E08CB9
:10161000401EE084E08C4B464FF00002CDF8008085
:101620000028EAD14FF04001204600F07DFF40B194
:1016300084F841700320C3E735F8020BC0F30800BB
:10164000E3E784F841700020BAE77047FEE7000046
:1016500070B51A4C02212046FEF774FF38B90A20F3
:10166000FEF76EFE02212046FEF76CFF38B14FF404
:10167000806529462046FEF765FF10B109E003208A
:1016800070BD0A20FEF75CFE29462046FEF75AFF91
:1016900028B101212046FEF755FF10B109E00220D4
:1016A00070BD0A20FEF74CFE01212046FEF74AFFDE
:1016B00008B1002070BD012070BD0000000C014089
:1016C00010B5204A0221102001F0ECF81E4C1D4AF2
:1016D0000221A0611832102001F0E4F8194AE061FB
:1016E00030320221102001F0DDF8164A2062D83A8B
:1016F0000021164801F036F9124A2060B43A002160
:10170000134801F02FF90F4A6060903A0021114808
:1017100001F028F90B4AA0606C3A00210E4801F054
:1017200021F9084AE060483A00210C4801F01AF912
:10173000044A2061243A0021094801F013F960614C
:1017400010BD0000484C000804000020051D0008E2
:10175000911E0008ED1F0008ED1D00080D1D00087A
:10176000751F00082DE9F04385B00024254800943A
:10177000019402940394816941F02001816181699F
:1017800001F020010491816941F0040181618169C6
:1017900001F004010491816941F0080181618069CF
:1017A000DFF8648000F008004FF4C0560490002277
:1017B00031464046FEF7CBFEDFF85090F71000228E
:1017C00039464846FEF7C3FE40F2034001258DE846
:1017D000310069464846FEF7C5FD0096CDE9015443
:1017E0000225694640460395FEF7BCFD01AA11207B
:1017F000009782E8310069464846FEF7B3FD05B020
:10180000BDE8F0830010024000080140000C0140D8
:1018100010B596B000240F94109411941294139460
:101820001C2108A81494FEF7E4FC20216846FEF76A
:10183000E0FC2848264901602321C0E90114632106
:10184000C0E9031444618461FFF742FA08B1FEF76E
:1018500005FD4FF480500F900FA91E48FFF7BEFA08
:1018600008B1FEF7FBFC1B48FFF76BFC08B1FEF765
:10187000F5FC139413A917481494FFF7F5F908B170
:10188000FEF7ECFC6020CDE908040A940B940C945C
:101890000D94002208A90F480E94FFF7ECFB08B145
:1018A000FEF7DCFC00944FF40050CDE904400294B4
:1018B00001940394694607480794FFF7ABF908B110
:1018C000FEF7CCFC0348FFF791FB16B010BD0000FB
:1018D000002C0140BC00002010B58EB000240794FD
:1018E000089409940A940B941C2168460C94FEF702
:1018F00080FC1F484FF0804101604721C0E901147E
:1019000044F61F61C0E903148461FFF7E1F908B1EF
:10191000FEF7A4FC4FF48050079007A91448FFF786
:101920005DFA08B1FEF79AFC1148FFF70AFC08B10E
:10193000FEF794FC0B940BA90D480C94FFF794F957
:1019400008B1FEF78BFC602000904FF4FA70CDE9EF
:1019500001040422694606480494FFF78CFB08B191
:10196000FEF77CFC0248FFF741FB0EB010BD000003
:101970000401002010B58EB0002407940894099447
:101980000A940B941C2168460C94FEF732FC1E4806
:101990001C49016040F2CF21C0E901146321C0E974
:1019A00003148461FFF794F908B1FEF757FC4FF474
:1019B0008050079007A91448FFF710FA08B1FEF706
:1019C0004DFC1148FFF7BDFB08B1FEF747FC0B9437
:1019D0000BA90D480C94FFF747F908B1FEF73EFC40
:1019E0006020CDE900040294002269460648049470
:1019F000FFF741FB08B1FEF731FC0348FFF7F6FAA9
:101A00000EB010BD000400404C0100200C4810B581
:101A10000A4901604FF416514160002181600C2297
:101A2000C160C0E904128161C161FFF74BFD00286C
:101A300003D0BDE81040FEF711BC10BD00380140D6
:101A400094010020FEE7FEE770B500240021204647
:101A500000F0ADF80025002000F043F96D1CEDB258
:101A6000802DF8D3641CE4B2082CEFD370BD10B500
:101A7000FFF778FE012000F013F9BDE810400120C7
:101A800000F016B970B500240646802525FA04F04A
:101A9000304000D0012000F00BF9012000F000F9E7
:101AA000002000F0FDF8641CE4B2082CEED3012005
:101AB00000F0F6F8BDE87040002000F0F1B810B575
:101AC000012000F0F5F8012000F0EAF8002000F015
:101AD000EFF8BDE81040002000F0E2B810B500209B
:101AE00000F0E6F8012000F0DBF8BDE8104001202E
:101AF00000F0DEB810B500204FF47A720021491CC6
:101B00009142FCD3401C9042F8D3FFF7B0FFAE20C7
:101B100000F0D6F8D52000F0D3F8802000F0D0F8FF
:101B2000A82000F0CDF83F2000F0CAF8D32000F044
:101B3000C7F8002000F0C4F8402000F0C1F8A12050
:101B400000F0BEF8C82000F0BBF8DA2000F0B8F8CA
:101B5000122000F0B5F8812000F0B2F8CF2000F09C
:101B6000AFF8D92000F0ACF8F12000F0A9F8DB20A4
:101B700000F0A6F8302000F0A3F8A42000F0A0F8B0
:101B8000A62000F09DF88D2000F09AF8142000F0B7
:101B900097F8AF2000F094F8BDE81040FFF754BF6D
:101BA0000246012000E05043491EFCD2704710B5A8
:101BB0000C4640F0B00000F083F8102040EA14100A
:101BC00000F07EF804F00F00BDE8104000F078B897
:101BD0002DE9F0410746CE004000083E801E154624
:101BE0004FF0FF38F1B2C0B2FFF7E1FF1148002417
:101BF00000EB05152819A0F5805090F8000E00F0B4
:101C000070F8641CE4B2082CF4D308EB4700F1B27E
:101C1000C0B2FFF7CCFF00242819A0F5805090F83F
:101C2000080E00F05EF8641CE4B2082CF4D3BDE8A2
:101C3000F0810000404100082DE9F04700241D46D6
:101C40001646884681460A2713E0291B0A20491EAA
:101C5000FFF7A6FFB6FBF0F0B0FBF7F107FB1102B0
:101C600008EB0400C1B248463032FFF7B1FF641CF4
:101C7000E4B2AC42E9D3BDE8F0872DE9F041154666
:101C80000E460746002406E03019C1B23846FFF779
:101C90009FFF641CE4B22A5D002AF5D1BDE8F08103
:101CA00002464FF480710148FEF751BC000C014020
:101CB00002464FF400710148FEF749BC000C014098
:101CC00010B50446FFF7FBFE7820FFF7DBFE00208F
:101CD000FFF7D8FE2046FFF7D5FEBDE81040FFF71E
:101CE000FDBE10B50446FFF7EAFE7820FFF7CAFEF6
:101CF0004020FFF7C7FE2046FFF7C4FEBDE81040B6
:101D0000FFF7ECBE012000F05FFDFBE70EB50026FB
:101D100034468DF804608DF808608DF800604FF04F
:101D2000030901274FF002084FF0FF3AFFF790FC3C
:101D300005003DD096BB012D04D0022D19D0032DF6
:101D40003BD035E09DF8040050B101280BD00228AB
:101D50000CD08DF804405346002201A9204824E00D
:101D60008DF80470F7E78DF80480F4E78DF804909F
:101D7000F1E79DF80000042811D2DFE800F0020529
:101D8000080B8DF800700CE08DF8008009E08DF8EC
:101D9000009006E004208DF8000002E008E08DF8D5
:101DA00000401048534600226946006800F0A6FD36
:101DB0002E460A2000F008FDB8E79DF8080040B163
:101DC000012809D08DF808405346002202A9064890
:101DD000EBE78DF80870F7E78DF80880F4E700006E
:101DE00024000020200000201C00002008B5224C08
:101DF0004FF000084FF0010920684546C0F83480D4
:101E00001E4F1F4E00231A466946386800F018FD21
:101E100001000FD0C81C02D01AA000F0C7FB307818
:101E200028B101280AD002280AD003280CD0206843
:101E300045631DE09DF800003070F0E7322000E0BF
:101E400064202168486313E02168C1F8348008EBFE
:101E500009001FFA80F8B8F1630F04D34FF063084C
:101E60004FF0FF3003E0B8F1000F01D101208146AF
:101E70000A2000F0A9FCC5E74C0100202400002046
:101E8000010000206572726F723A2025640D0A000D
:101E900008B52A4CDFF89C90274DDFF8A4804FF45A
:101EA000617B4FF0000A4FF40066A71425A000F0F4
:101EB0007DFB012231462046FEF749FB00223946D0
:101EC0002046FEF744FB00231A466946D9F8000075
:101ED00000F0B6FC01001AD0C81C02D01DA000F012
:101EE00065FB29781EA000F061FB287818B1012855
:101EF00011D0022815D0002231462046FEF727FBDC
:101F0000002239462046FEF722FB50460AE09DF8A3
:101F100000002870E5E7D8F800004FF4E171416354
:101F200003E05846D8F8001048630A2000F04CFC43
:101F3000BCE700001C000020000000200008014059
:101F4000BC0000206D6F746F725F7461736B330D32
:101F50000A0000006572726F723A2025640D0A0053
:101F6000726563656976656453746174653A2025AA
:101F7000640D0A00FFF7BEFD134E144C144D0121F1
:101F800014A20846FFF779FE01233278062118468D
:101F9000FFF752FE11A201210220FFF76EFE01237E
:101FA000227807210220FFF747FE0EA2012103201D
:101FB000FFF763FE01232A7808210320FFF73CFE88
:101FC000C82000F001FCDAE701000020000000203A
:101FD000020000204C45443A000000004D6F746F31
:101FE000723A0000536572766F3A000008B51B4FD5
:101FF0001B4D1C4C4FF4FA7640F6C41840F2DC59E5
:1020000019A000F0D3FA00231A466946386800F098
:1020100017FC01000CD0C81C02D017A000F0C6FAB3
:102020002878052808D2DFE800F0070A0D14170009
:102030009DF800002870F3E72068866305E040F211
:10204000413000E04846216888630A2000F0BCFB6C
:10205000D6E740F22970F6E74046F4E7200000207A
:102060000200002004010020736572766F5F7461C6
:10207000736B320D0A0000006572726F723A202590
:10208000640D0A0010B54FF0E020006901F0A2FED7
:10209000012803D0BDE8104001F062BB10BD30B58F
:1020A0008FB028216846FEF7A4F814210AA8FEF78D
:1020B000A0F801210804CDE90010002402940225B3
:1020C0000491CDE907504FF4E01009906846FEF7FF
:1020D0000FFC08B172B6FEE70F20CDE90A054FF4F8
:1020E0008060CDE90C4002210AA80E94FEF704FBA3
:1020F000002801D072B6FEE70FB030BD7047000077
:102100000148FEF7DABE0000DC010020F0B50268ED
:10211000194B1A4C1A4D4FF08047984205D0B842DF
:1021200003D0A04201D0A84203D122F070064A6831
:102130003243984205D0B84203D0A04201D0A84211
:1021400003D122F44074CA6822434C6922F0800211
:10215000224302608A68C2620A688262984201D1A0
:1021600009690163012141610169C90703D001695E
:1021700021F001010161F0BD002C0140000400408C
:102180000008004010B501F01F030121046A9940C6
:102190008C430462016A9A401143016210BD10B57C
:1021A000846842EA032224F47F440A432243826083
:1021B00010BD826822F070020A4342F0070181607C
:1021C0007047000030B5036A026A22F00102026221
:1021D0004268846924F073050C682C4323F00205DF
:1021E0008B682B430A4DA8420BD123F00805CB681E
:1021F00022F440722B434D6923F0040315438A698E
:102200002A434260846149684163036230BD000033
:10221000002C014030B5026A036A23F01003036208
:10222000436884690D6824F4E64444EA05248D6813
:1022300022F0200242EA05120B4DA8420ED1CD68D1
:1022400022F0800242EA05124D6923F4406343EA1A
:1022500085038D6922F0400243EA8503436084616F
:1022600049688163026230BD002C014030B5036AC9
:10227000026A22F4807202624268C46923F4007325
:1022800024F073050C682C438D6843EA05230C4D3C
:10229000A8420ED1CD6823F4006343EA05234D69BB
:1022A00022F4405242EA05128D6923F4806342EA27
:1022B00005124260C4614968C163036230BD000019
:1022C000002C014030B5046A026A22F48052026296
:1022D0004268C3690D6823F4E64343EA05238D6829
:1022E00024F4005444EA0534064DA84204D14D6953
:1022F00022F4804242EA85124260C3614968016467
:10230000046230BD002C014010B5036A046A24F059
:1023100001040462846924F0F00444EA021423F006
:102320000A020A438461026210BD10B5036A046A9E
:1023300024F010040462846923F0A00324F47044A0
:1023400044EA023243EA01118261016210BD10B514
:10235000406A0021C185C184FEF77CFF10BD016881
:102360000C3151E8002F22F4907241E80023002B39
:10237000F5D10168143151E8002F22F0010241E843
:102380000023002BF5D1016B012909D101680C3123
:1023900051E8002F22F0100241E80023002BF5D174
:1023A000202180F8421000210163704708B590F8A1
:1023B0004210222901D0022008BD82684FF48053C8
:1023C0009A4201D1016921B1816A9A421BD04AB176
:1023D0000AE00268816A5268C2F308020A80816AD0
:1023E000891C08E0026972B10268526802F07F023B
:1023F0000A70816A491C8162C18D491E0904090C59
:10240000C18503D01BE002685268F1E70168CA6821
:1024100022F02002CA600168CA6822F48072CA6091
:1024200001684A6922F001024A61202180F84210C5
:1024300000214163026B012A03D0FFF7B5F80020A9
:1024400008BD016301680C3151E8002F22F0100231
:1024500041E80023002BF5D101680A68D20602D5B5
:102460000A6849680091818DFEF7F3FEE7E70000F6
:1024700070B5044600680169E26821F440511143D7
:1024800001612169A0680843616908432168CA683D
:1024900041F20C639A430243CA6020684169A26911
:1024A00021F44071114341611E492068884202D1E4
:1024B000FEF7E8F901E0FEF7D5F900EBC00101EB0A
:1024C0000012606864218000B2FBF0F3B3FBF1F30B
:1024D0006FF018067343B2FBF0F5B2FBF0F605EBB4
:1024E0008305322303EB0515B5FBF1F5B6FBF1F6D9
:1024F00005F0F00505EB0615B2FBF0F6B2FBF0F0C7
:10250000B0FBF1F06FF01802504306EB800003EBD4
:102510000010B0FBF1F0216800F00F002844886043
:1025200070BD0000003801402DE9F8439846174679
:102530000D460446089E24E0701C22D0FEF70CF8DD
:10254000A0EB0800B0421AD8CEB12068C168490794
:1025500017D5802D15D0402D13D00168C943090728
:102560000FD401680025406800902046FFF7F7FE71
:102570000820606484F840500120BDE8F8830320FF
:10258000FBE72068006835EA000004D00020B8426C
:10259000D2D00020F1E70120F9E700000148FEF762
:1025A0005BBE000094010020FEE700000FB4054B65
:1025B00010B503A9044A029800F028F810BC5DF891
:1025C00014FB000061270008B80000200907090E6D
:1025D000002804DB00F1E02080F80014704700F0D0
:1025E0000F0000F1E02080F8141D704702E008C8D9
:1025F000121F08C1002AFAD170477047002001E07D
:1026000001C1121F002AFBD1704700002DE9FF4FC6
:1026100089B09B460446002506E025280BD05A4683
:102620000B999047641C6D1C20780028F5D10DB0E3
:102630002846BDE8F08F0027B8460122474900E050
:10264000074314F8013F203B02FA03F00842F7D198
:1026500020782E2819D114F8010F47F004072A28F2
:102660000ED06FF02F022078A0F1300109290CD88C
:1026700008EB880102EB410100EB0108641CF2E762
:102680000A98641C50F8048B0A9020780028CED059
:10269000642808D0692806D075281ED05A460B99A0
:1026A00090476D1C58E00A994FF00A0901C90A9138
:1026B000002802DA40422D2102E0390504D52B2101
:1026C0008DF82010012103E0F90704D02021F7E75D
:1026D0008A4608AE0DE00021FAE70A994FF00A0990
:1026E00001C90A91F7E74946FDF78EFD303106F83A
:1026F000011D0028F7D1ADEB060000F12009780795
:1027000001D44FF00108C84502DDA8EB090000E044
:1027100000208046002706E008A85A46C05D0B99B5
:1027200090476D1C7F1C5745F6DB04E030205A466D
:102730000B9990476D1CB8F10001A8F10108F5DC78
:1027400005E016F8010B5A460B9990476D1CB9F13C
:102750000001A9F10109F4DC641C65E70928010006
:1027600013B54FF47A73012269460248FEF71DFF44
:1027700000981CBD94010020FDF7FCFEFFF78FFCC4
:10278000FEF7F0FFFFF7A8F8FFF742F8FFF7F2F8BF
:10279000FFF73CF900210948FEF702FD0421084833
:1027A000FEF7FEFC00210748FEF7FAFC00F01AF8DD
:1027B000FEF786FF00F028F8FEE70000BC000020CE
:1027C000040100204C01002010B5EFF3058111B188
:1027D0006FF0050403E0002408B100F087FE2046F6
:1027E00010BD0000EFF3058010B16FF005007047D9
:1027F0000448016811B14FF0FF30704701210160BA
:10280000002070478800002010B5EFF3058010B15C
:102810006FF0050010BD08480168012902D04FF093
:10282000FF3010BD054A002182F8141D022101600D
:1028300000F0C4FE002010BD880000200BE000E086
:10284000F8B51D466FF003026FF002064FF000046A
:10285000EFF30583A3B1F0B1E9B1E5B9002200922D
:102860006A4601F0D7F9012817D10098B0B10C4998
:102870004FF080500860BFF34F8FBFF36F8F0DE0B4
:1028800048B141B12A4601F029F9012806D025B105
:102890006FF0010402E0144600E034462046F8BD23
:1028A00004ED00E0F8B514464FF00005EFF30582A3
:1028B00012BB08B301B3A4B1D4E9023263B1502A08
:1028C0001AD32269C2B1676900FB01F6B74213D37C
:1028D000009500F07CFF07E072B9226962B9626975
:1028E00052B9002200F052FF050005D00CB121685A
:1028F00000E0002100F0C4FD2846F8BDF8B51D46F3
:102900006FF003026FF002064FF00004EFF305834F
:10291000ABB100B3F9B1F5B90022134600926A4693
:1029200001F07CF8012818D10098B8B10C494FF09B
:1029300080500860BFF34F8FBFF36F8F0EE050B130
:1029400049B100232A4600F0B9FF012806D025B17D
:102950006FF0010402E0144600E034462046F8BD62
:1029600004ED00E02DE9FF414FEA01034FF00005BF
:10297000EFF30581039549BB40B38027182100245C
:102980004AB3166806B1344696691EB13146761EC2
:10299000382E02D21679F60703D0002004B0BDE825
:1029A000F081566906B1B708D2F808C0BCF1000F33
:1029B0000DD0D5685C2D18D312693AB136B18DE8C7
:1029C00006103A46214601F0DAF903900DE0D66888
:1029D0005EB912694AB903AACDE90012BAB221461A
:1029E00001F0A0F9012800D003950398D6E7000074
:1029F0002DE9F041134C0F460546E6682068001D9E
:102A000000F040FC681C07D137B12168BDE8F041F7
:102A10000D48091D00F086BC20683544B54245606C
:102A2000216805D2A06BBDE8F041091D00F062BC31
:102A3000606B091D00F05EFCA06A854200D2A562B1
:102A4000BDE8F08138000020140700202DE9F04196
:102A5000054600F073FC2D4CA068401CA060206867
:102A60002B4F10B1606930B32BE02560A0680128BE
:102A700027D1002606EB860007EB800000F02CFC37
:102A8000761C382EF6D3234800F026FC214814305B
:102A900000F022FC1F48283000F01EFC1D483C308E
:102AA00000F01AFC1B48503000F016FC1948606317
:102AB0001430A06305E02068E96AC06A884200D843
:102AC0002560606A401C60626864E86A2169884227
:102AD00000D9206100EB800007EB8000291D00F089
:102AE00021FC00F04BFC606900280CD02068E96AEA
:102AF000C06A884207D208494FF080500860BFF38F
:102B00004F8FBFF36F8FBDE8F081000038000020C9
:102B100064020020C406002004ED00E038B500F097
:102B20000DFC104C2068C8B90F4800F0D5FB0E48CA
:102B3000143000F0D1FB0C48E060143020610A4BE7
:102B40000020F03B009003F1500210210A2000F019
:102B50003EFE206010B105A100F092FCBDE83840B7
:102B600000F00CBC7400002018080020546D725155
:102B70000000000030B4026C0B46002A0BD0C16884
:102B80001144C1608468A14201D30168C16030BCB6
:102B90001846FDF715BB30BC70472DE9F041856B39
:102BA000174604460026026C82B1C7B1E068FDF703
:102BB00007FBE168206C091AE1602268914202D2A9
:102BC000A168081AE060022F16D017E02068A8B9A3
:102BD000A06801F077F906460020A0600EE060686A
:102BE000FDF7EEFA216C606808446060A1688842D5
:102BF00004D32068606001E005B16D1E6D1CA56303
:102C00003046BDE8F08110B5044690F8590058B13F
:102C100001280CD002280FD0502080F31188BFF378
:102C20004F8FBFF36F8FFEE7206B00F0BBFB20469A
:102C3000BDE8104000F0B6BB10BD000010484FF4D6
:102C40002051420706D0C01D0D4920F00700411A4F
:102C5000C1F520510B4A00230144C2E900030839A1
:102C6000183A21F0070111604B600B600B1AC0E9A4
:102C7000001393604FF000405360506170470000B4
:102C8000F80E0020A4000020144E154CA6F29C471C
:102C90004FF08058DFF84C9012E000BF00F04EFB80
:102CA000F068C568281D00F0EDFAA068401EA0601D
:102CB0006068401E606000F061FB2846FFF7A3FFDC
:102CC00060680028EAD138680128F9D9C9F800807D
:102CD000BFF34F8FBFF36F8FF2E7000000070020B4
:102CE0003800002004ED00E070B51D46049C51B191
:102CF000C4F80020C4E90F010121204600F09AFD2C
:102D000084F84C5070BD2460F4E700002DE9F05FBA
:102D10008846DDE90B941546834691009A460A9E43
:102D2000A522206BFDF75EFA6FF00301206B01EB2B
:102D30008501084420F00707780707D0502080F36A
:102D40001188BFF34F8FBFF36F8FFEE70025B8F1F7
:102D5000000F0FD05FF00000221818F8001082F862
:102D6000341018F8001011B1401C1028F4D384F866
:102D7000435001E084F83450382E00D33726E66201
:102D8000C4E91365201D00F0B2FA04F1180000F048
:102D9000AEFA2461C6F138006462A061656584F80A
:102DA000585052465946384600F05AFA2060B9F158
:102DB000000F01D0C9F80040BDE8F09F30B51149BF
:102DC00000E011460A688242FBD34B685C188442DB
:102DD00003D1406818444860084643681C18944270
:102DE00009D1084C183C2468A24209D052681A4400
:102DF00042600A6812680260814200D0086030BDFB
:102E00000460F9E7A400002070B5002441600B4D78
:102E10000061914206D8D11A8269914206D2011D01
:102E2000286907E09A4203D2994201D3012403E0C2
:102E3000011DE86800F05EFA204670BD74000020B5
:102E400010B5044600F07AFAA06B28B15FF00004D8
:102E500000F094FA204610BD0124F9E730B589B09E
:102E60003C4D6EE00498002806DADDE90601059A7B
:102E700090470498002864DB069C606910B1201D0F
:102E800000F000FA03A800F0D7F8024604980A28D8
:102E900057D2DFE800F00505052D334A05052D332F
:102EA00094F8280040F0010084F828000599A069F2
:102EB000059B01442046FFF7A7FF68B3216A20461F
:102EC000884794F8280040073BD5002000900598DB
:102ED000A169002342181946204601F0FDF8D8B92F
:102EE000502080F31188BFF34F8FBFF36F8FFEE741
:102EF00014F8280F20F00100207022E094F8280038
:102F000040F0010084F828000598A06128B18118DC
:102F100013462046FFF778FF13E0502080F3118816
:102F2000BFF34F8FBFF36F8FFEE794F82800810740
:102F300003D4204600F036FA03E020F0010084F8C4
:102F40002800002204A9286800F0C8FD002889D1C3
:102F500009B030BD740000202DE9FC410F46054644
:102F600000F070FB01A800F067F80446019818B162
:102F700001F020F8BDE8FC81254EAFB13069006852
:102F8000D0B30027291B3A46306800F08DFA01F0D3
:102F900011F80028EED11F494FF080500860BFF3B0
:102FA0004F8FBFF36F8FE5E7A542EBD801F002F832
:102FB000F0682746C068C468201D00F063F994F8E3
:102FC0002800410719D5A0692B4641193A462046E9
:102FD000FFF71AFFA8B100200346014600902A46D9
:102FE000204601F079F860B9502080F31188BFF3D2
:102FF0004F8FBFF36F8FFEE707E020F0010084F8EA
:103000002800216A20468847B4E70127BAE7000074
:103010007400002004ED00E00648416B096829B106
:10302000416BC968C9684968816270474FF0FF31D8
:10303000FAE700003800002070B5054600F0D8FE21
:10304000064E0446B068844203D200F009F801201D
:1030500000E0002028602046B46070BD74000020AD
:10306000F8B5194D20E0C068C4680668201D00F05E
:1030700009F9216A2046884794F82800400713D5AB
:10308000A0693044B04206D924616060211DE8681F
:1030900000F030F908E00020034601460090324677
:1030A000204601F019F838B1E86801680029DAD142
:1030B0002969C5E90310F8BD502080F31188BFF3DA
:1030C0004F8FBFF36F8FFEE7740000200848406801
:1030D000401C4FF0500080F3118804D0BFF34F8F95
:1030E000BFF36F8FFEE7BFF34F8FBFF36F8FFEE726
:1030F000AC000020074CE068016841B1C0680021C5
:10310000D0F80000FFF728FFFFF7A8FEF3E7012142
:103110000020F7E7740000202DE9F041044600F09C
:103120000DF994F9455004F1240609E0606A48B1AC
:10313000304600F007FF08B100F006FA6D1E6DB2D0
:10314000002DF3DC4FF0FF3684F8456000F016F9EF
:1031500000F0F4F894F9445004F1100709E02069F4
:1031600048B1384600F0EEFE08B100F0EDF96D1EF2
:103170006DB2002DF3DC84F84460BDE8F04100F04E
:10318000FDB800002DE9F0410546002700F05AFA8D
:10319000324E306808B9FFF751FD706905424ED1D3
:1031A000C5B3083568070ED005F00700C0F1080068
:1031B0000544680707D0502080F31188BFF34F8F74
:1031C000BFF36F8FFEE72DB37068854237D8234871
:1031D000183001460C6801E020460C466168A9429F
:1031E00002D221680029F7D131688C4227D00768C4
:1031F0002168016060680837411B10290FD96019E8
:10320000420708D0502080F31188BFF34F8FBFF3DF
:103210006F8FFEE713E041606560FFF7CFFD6168E7
:103220007068401A7060B268904200D2B0607069F5
:1032300001430020C4E90001F068401CF06000F088
:10324000B9FE780707D0502080F31188BFF34F8F65
:10325000BFF36F8FFEE73846BDE8F0818C00002099
:1032600010B5031F4FF080741C601B1F21F001017B
:103270001960191F024B0B60143940380A6010BDE9
:10328000CD300008D0E9013201699A60D0E901230C
:103290005A604A68824201D182684A600022026113
:1032A0000868401E0860086870470000034B036010
:1032B00003F15C0008608020106070474008002027
:1032C000044B036003F15C0008604FF480701060F1
:1032D000704700009C0A002000F108014FF0FF3207
:1032E000C0E90112C1600161002101607047002145
:1032F0000161704730B50B685A1C02D000F108021A
:1033000002E0026904E02246546825689D42FAD929
:1033100053684B6099608A60516008610168491C7C
:10332000016030BD42684A6093688B609368596061
:10333000916008610168491C01607047502080F36A
:103340001188BFF34F8FBFF36F8F0A494868401C45
:10335000486001280CD10848006810F0FF0F07D022
:10336000502080F31188BFF34F8FBFF36F8FFEE7BC
:1033700070470000AC00002004ED00E008494868F8
:1033800028B1401E486001D180F311887047502059
:1033900080F31188BFF34F8FBFF36F8FFEE70000FC
:1033A000AC00002070B500282AD0164DA0F108040A
:1033B00060686969084207D1502080F31188BFF323
:1033C0004F8FBFF36F8FFEE722683AB1502080F332
:1033D0001188BFF34F8FBFF36F8FFEE788436060A4
:1033E00000F030F960686968084468602046FFF7BB
:1033F000E5FC2869401C2861BDE8704000F0DABD9A
:1034000070BD00008C0000204FF0E0200021016121
:10341000816105494FF47A720968B1FBF2F1491EE6
:1034200041610721016170473400002010B5FCF7AD
:10343000B1FE114910280ED300F1E02090F8F003FE
:103440000A78904207D2502080F31188BFF34F8F43
:10345000BFF36F8FFEE709480068896800F4E060F9
:10346000884207D9502080F31188BFF34F8FBFF3F4
:103470006F8FFEE710BD0000AC0000200CED00E0F7
:1034800010B5084B002200BF53F832401CB1521C4B
:10349000082AF9D310BD43F8321003EBC20148608B
:1034A00010BD00002402002070B515460E460446EB
:1034B000FFF744FF94F944100020491C01D184F81F
:1034C000440094F94510491C01D184F84500FFF7E8
:1034D00055FFA06B28B92A46314604F1240000F0BC
:1034E00051F82046BDE87040FFF716BE10B5020047
:1034F00014D00F48006B38B1502080F31188BFF30F
:103500004F8FBFF36F8FFEE700F09CF8002110464D
:10351000FFF76EFA00F04EFD002807D105494FF085
:1035200080500860BFF34F8FBFF36F8F10BD000056
:103530003800002004ED00E002490A6A0260C96810
:10354000416070473800002001490120C861704780
:103550003800002010B50C4650B1094909681831EF
:10356000FFF7C8FE2046BDE810400121FFF740BA32
:10357000502080F31188BFF34F8FBFF36F8FFEE7AA
:103580003800002070B514460D4668B10A49096834
:103590001831FFF7C7FE0CB14FF0FF352146284622
:1035A000BDE87040FFF724BA502080F31188BFF3C4
:1035B0004F8FBFF36F8FFEE73800002030B587B024
:1035C0000024039405AA04A903A80494FFF76EFE3F
:1035D000DDE903010094CDE90110002315A117488E
:1035E000059A00F0CCFB164D0028E8621FD000F0D1
:1035F00043FD012809D0401C19D1502080F31188C7
:10360000BFF34F8FBFF36F8FFEE7502080F3118819
:10361000BFF34F8FBFF36F8F4FF0FF30A8620120D1
:103620006861EC6007B0BDE8304000F045B807B015
:1036300030BD000049444C4500000000892C0008C2
:10364000380000200248016B491C016370470000EC
:1036500038000020164810B5016B11B10121C1617D
:1036600010BD0021C1610169124A01E0B9B1491ED2
:1036700001EB810352F82330002BF7D001EB8103DB
:1036800002EB830202F1080453685B685360A342B3
:1036900001D15B685360DA680260016110BD50209F
:1036A00080F31188BFF34F8FBFF36F8FFEE70000E9
:1036B00038000020640200201CB5264908780190DB
:1036C000FF20087008788DF800009DF800009DF834
:1036D000002000F0F000904207D0502080F31188C5
:1036E000BFF34F8FBFF36F8FFEE79DF800001A4CBA
:1036F00000F0500020700720A06005E09DF8002039
:1037000052008DF80020401E9DF800201206F5D4CE
:10371000A060032807D0502080F31188BFF34F8F9B
:10372000BFF36F8FFEE74FF44070A0600198087000
:103730000A48016841F470010160016841F070417C
:103740000160FFF761FE00206060FCF7EDFC0020E7
:103750001CBD000000E400E0AC00002020ED00E013
:1037600010B5502080F31188BFF34F8FBFF36F8FD8
:1037700000F044FB18B104494FF08050086000206D
:1037800080F3118810BD000004ED00E0F8B5174685
:103790000E46050013D005FB06F05030FFF7F2FC93
:1037A00004000AD0002084F8460004F150023B4691
:1037B000314628460094FFF797FA2046F8BD50207E
:1037C00080F31188BFF34F8FBFF36F8FFEE738B5DB
:1037D000049D18B153B1CAB181B120E0502080F3EB
:1037E0001188BFF34F8FBFF36F8FFEE7502080F338
:1037F0001188BFF34F8FBFF36F8FFEE7502080F328
:103800001188BFF34F8FBFF36F8FFEE739B15020A0
:1038100080F31188BFF34F8FBFF36F8FFEE7502403
:103820001C46012384F846302B460094FFF75CFACF
:10383000204638BD70B50D46040025D0FFF77EFD4B
:10384000D4E90F20216802FB0011A1600021A163CF
:10385000216861600A46D4E90F01401E00FB012186
:10386000E16021464FF0FF3001F8440F487004F149
:1038700010008DB1FFF730FD04F12400FFF72CFD9F
:10388000FFF77CFD012070BD502080F31188BFF34D
:103890004F8FBFF36F8FFEE721690029F0D000F052
:1038A00051FB0028ECD004494FF080500860BFF372
:1038B0004F8FBFF36F8FE3E704ED00E02DE9FF4783
:1038C00082B01D468A464FF00008040003D0BAF1CA
:1038D000000F08D011E0502080F31188BFF34F8F04
:1038E000BFF36F8FFEE7206C38B1502080F3118852
:1038F000BFF34F8FBFF36F8FFEE7022D0AD1E06B4E
:10390000012807D0502080F31188BFF34F8FBFF3F9
:103910006F8FFEE700F05EFA3F4F4FF000094FF067
:10392000805648B9049838B1502080F31188BFF30D
:103930004F8FBFF36F8FFEE7FFF700FDA06BE16BCA
:10394000884207D3022D05D00498D0B1B8F1000FFA
:103950001AD01EE02A4651462046FFF71EF9616A3A
:1039600019B104F1240000F0EDFA20B13E60BFF37C
:103970004F8FBFF36F8FFFF701FD012006B0BDE849
:10398000F087FFF7FBFC22E06846FFF7D5FD4FF01C
:103990000108FFF7F3FCFFF755FEFFF7CFFC94F9A2
:1039A0004400401C01D184F8449094F94500401C27
:1039B00001D184F84590FFF7E1FC04A9684600F0C6
:1039C00077F930B12046FFF7A7FB00F0F3FA0020AB
:1039D000D4E7FFF7B3FCA06BE16B884213D1FFF78C
:1039E000CDFC04F110000499FFF7B4FD2046FFF769
:1039F00093FB00F0DFFA00289ED13E60BFF34F8FAB
:103A0000BFF36F8F98E7FFF7B9FC2046FFF784FB01
:103A100000F0D0FA90E7000004ED00E02DE9F04757
:103A20001F4690468946040003D0B9F1000F08D024
:103A300011E0502080F31188BFF34F8FBFF36F8FD9
:103A4000FEE7206C38B1502080F31188BFF34F8F10
:103A5000BFF36F8FFEE7022F0AD1E06B012807D07A
:103A6000502080F31188BFF34F8FBFF36F8FFEE7B5
:103A7000FFF7DCFC5020EFF3118680F31188BFF3D1
:103A80004F8FBFF36F8FA06BE16B884206D3022F7D
:103A900004D0002086F31188BDE8F08794F94550E2
:103AA000A06B3A4649462046FFF777F8681C04D0D9
:103AB0006D1C84F845500120ECE7606A0028FAD0BC
:103AC00004F1240000F03EFA0028F4D0B8F1000F11
:103AD000F1D00121C8F80010EDE700002DE9F7470B
:103AE000002683B08A46040003D0BAF1000F08D044
:103AF00011E0502080F31188BFF34F8FBFF36F8F19
:103B0000FEE7206C38B1502080F31188BFF34F8F4F
:103B1000BFF36F8FFEE700F05DF9DFF8F4804FF040
:103B200000094FF0805748B9059838B1502080F30C
:103B30001188BFF34F8FBFF36F8FFEE7FFF7FEFBD8
:103B4000A56BC5B151462046FFF714F86D1EA5635D
:103B5000206950B104F1100000F0F4F928B1C8F860
:103B60000070BFF34F8FBFF36F8FFFF707FC01208B
:103B700006B0BDE8F087059808B11EB106E0FFF772
:103B8000FDFB27E06846FFF7D7FC0126FFF7F6FBB1
:103B9000FFF758FDFFF7D2FB94F94400401C01D118
:103BA00084F8449094F94500401C01D184F8459074
:103BB000FFF7E4FB05A9684600F07AF800282046E4
:103BC0000AD0FFF7A9FA00F0F5F92046FFF738F917
:103BD0000028B3D00020CBE7FFF732F990B104F111
:103BE00024000599FFF7B6FC2046FFF795FA00F090
:103BF000E1F90028A2D1C8F80070BFF34F8FBFF3DE
:103C00006F8F9BE72046FFF787FA00F0D3F995E71F
:103C100004ED00E02DE9F04790468946040003D00A
:103C2000B9F1000F08D011E0502080F31188BFF3E4
:103C30004F8FBFF36F8FFEE7206C38B1502080F3B9
:103C40001188BFF34F8FBFF36F8FFEE7FFF7EEFBD7
:103C50005020EFF3118680F31188BFF34F8FBFF32D
:103C60006F8FA76BF7B194F9445049462046FEF791
:103C700081FF7F1EA763681C04D06D1C84F844502C
:103C8000012010E020690028FAD004F1100000F0B3
:103C900059F90028F4D0B8F1000FF1D00121C8F88B
:103CA0000010EDE7002086F31188BDE8F0870000E2
:103CB0002DE9F0410C46050011D0C4B1FFF73EFBE1
:103CC000174BDA686E682068911B471C17D02F6865
:103CD0001B6A9F4219D0964217D8012410E0502049
:103CE00080F31188BFF34F8FBFF36F8FFEE7502033
:103CF00080F31188BFF34F8FBFF36F8FFEE700246F
:103D0000FFF73CFB2046BDE8F081884205D9401A08
:103D100020602846FFF710FCF1E700202060DCE778
:103D2000380000202DE9FF5F8346DDE90E879946C4
:103D300016468A469000FFF725FA05001CD05C2045
:103D4000FFF720FA040014D00020256384F85900FE
:103D5000CDE90240CDE900874B46324651465846F0
:103D6000FEF7D4FF2046FEF771FE012004B0BDE847
:103D7000F09F2846FFF716FB4FF0FF30F6E7F0B54F
:103D800085B0DDE90B640A9DA6B1DCB15C27009724
:103D90002663022684F85960002604AFCDE9024666
:103DA000CDE90057FEF7B2FF2046FEF74FFE04981C
:103DB00005B0F0BD502080F31188BFF34F8FBFF3E3
:103DC0006F8FFEE7502080F31188BFF34F8FBFF352
:103DD0006F8FFEE70548416919B1006B18B10020EB
:103DE0007047012070470220704700003800002013
:103DF0000148C06870470000380000202DE9F041FC
:103E00002E4C0027206B28B1A069401CA0613846C9
:103E1000BDE8F081E668761CE66013D1606B00684F
:103E200038B1502080F31188BFF34F8FBFF36F8FED
:103E3000FEE7606BA16B6163A063206A401C206297
:103E4000FFF7EAF8A06ADFF87880864209D3606B52
:103E50000068A0B1606BC068C5686868864211D20E
:103E6000A0622068C06A00EB800158F82100012898
:103E700000D90127E0690028C9D00127C7E74FF022
:103E8000FF30EDE7281DFFF7FDF9A86A18B105F12D
:103E90001800FFF7F7F9E86A2169884200D9206124
:103EA00000EB800108EB8100291DFFF73BFAE86A6F
:103EB0002168C96A8842CAD30127C8E738000020B0
:103EC0006402002070B504004FF0000133D01B4D98
:103ED0002868844207D0502080F31188BFF34F8FA9
:103EE000BFF36F8FFEE7206D38B1401E2065E36C95
:103EF000E26A9A421FD040B11DE0502080F3118841
:103F0000BFF34F8FBFF36F8FFEE7201DFFF7BAF9A6
:103F1000E06CE062C0F13800A061E06A2969884283
:103F200000D92861064900EB800001EB8000211DCB
:103F3000FFF7F8F90121084670BD000038000020A5
:103F40006402002070B5C068C46854B104F1180060
:103F50000646FFF797F9144D286B50B131461348C8
:103F600015E0502080F31188BFF34F8FBFF36F8FA0
:103F7000FEE7201DFFF786F9E06A2969884200D92B
:103F800028610B4900EB800001EB8000211DFFF749
:103F9000C9F9E06A2968C96A884202D90120E86142
:103FA00070BD002070BD000038000020EC0600202D
:103FB000640200202DE9F0472C4D00242746286B91
:103FC00038B1FFF7BBF9286B401E2863286B40B15E
:103FD00046E0502080F31188BFF34F8FBFF36F8FFF
:103FE000FEE7A968224E0120D1B3A6F5916980466B
:103FF0003068E0B1F068C46804F11800FFF742F9D6
:10400000201DFFF73FF9E06A2969884200D928613D
:1040100000EB800109EB8100211DFFF783F9E06AC5
:104020002968C96A8842E3D3C5F81C80E0E70CB16F
:10403000FEF7F2FFAC694CB14FEA0806FFF7DEFE6F
:1040400000B1EE61641EF9D10020A861E86938B1C1
:104050000849012738070860BFF34F8FBFF36F8F00
:10406000FFF78CF93846BDE8F087000038000020E3
:10407000EC06002004ED00E010B586B0FEF74EFD22
:10408000114C2068B8B100200390049005AA04A93F
:1040900003A8FFF715F9DDE9032102208DE80700E9
:1040A00000230AA10B48059AFFF769FE606010B172
:1040B00006B0012010BD502080F31188BFF34F8F50
:1040C000BFF36F8FFEE7000074000020546D722074
:1040D00053766300F53000082DE9FF411E46134674
:1040E00002000A9D4FF0000016D0144C2768002FE4
:1040F0000FD0CDE900130292062917DAFFF76AFE06
:1041000002284FF000030FD0002269462068FFF715
:10411000D5FB04B0BDE8F081502080F31188BFF3D7
:104120004F8FBFF36F8FFEE72A46EEE7002332463C
:1041300069463846FFF772FCEBE700007400002088
:10414000000000000000000000000000000000006F
:10415000000000F800000000000000333000000004
:1041600000100C06100C060000000000000000000B
:1041700040C07840C0784000043F04043F0404007D
:10418000007088FC08300000001820FF211E00008D
:10419000F008F000E018000000211C031E211E00A2
:1041A00000F00888700000001E2123241927211028
:1041B00010160E00000000000000000000000000CB
:1041C000000000E018040200000000071820400072
:1041D00000020418E0000000004020180700000062
:1041E000404080F0804040000202010F01020200C6
:1041F000000000F0000000000101011F01010100AA
:10420000000000000000000080B07000000000000E
:104210000000000000000000000101010101010197
:10422000000000000000000000303000000000002E
:104230000000000080601804006018060100000003
:1042400000E010080810E000000F102020100F0000
:10425000001010F8000000000020203F2020000087
:1042600000700808088870000030282422213000DF
:1042700000300888884830000018202020110E00E7
:104280000000C02010F8000000070424243F240090
:1042900000F80888880808000019212020110E0065
:1042A00000E0108888180000000F112020110E0077
:1042B00000380808C83808000000003F000000006F
:1042C0000070880808887000001C222121221C0030
:1042D00000E010080810E0000000312222110F0059
:1042E000000000C0C00000000000003030000000EE
:1042F000000000800000000000008060000000005E
:104300000000804020100800000102040810200076
:1043100040404040404040000404040404040400C1
:104320000008102040800000002010080402010056
:10433000007048080808F000000000303601000056
:10434000C030C828E810E0000718272423140B0009
:104350000000C038E0000000203C23020227382083
:1043600008F8888888700000203F202020110E0067
:10437000C03008080808380007182020201008005E
:1043800008F808080810E000203F202020100F0047
:1043900008F88888E8081000203F20202320180013
:1043A00008F88888E8081000203F2000030000007B
:1043B000C03008080838000007182020221E02001C
:1043C00008F808000008F808203F210101213F20DB
:1043D000000808F8080800000020203F2020000006
:1043E00000000808F8080800C08080807F000000F6
:1043F00008F888C028180800203F2001263820002F
:1044000008F8080000000000203F20202020300095
:1044100008F8F800F8F80800203F003F003F2000AF
:1044200008F830C00008F808203F200007183F00B7
:10443000E01008080810E0000F10202020100F00E6
:1044400008F808080808F000203F210101010000D9
:10445000E01008080810E0000F18242438504F001E
:1044600008F8888888887000203F2000030C3020DE
:1044700000708808080838000038202121221C001C
:10448000180808F8080818000000203F2000000065
:1044900008F808000008F808001F202020201F004E
:1044A0000878880000C83808000007380E010000AE
:1044B000F80800F80008F800033C0700073C030078
:1044C000081868808068180820302C03032C3020DE
:1044D0000838C800C83808000000203F200000004D
:1044E00010080808C83808002038262120201800A5
:1044F000000000FE020202000000007F4040400079
:10450000000C30C000000000000000010638C000B0
:1045100000020202FE000000004040407F00000058
:10452000000004020202040000000000000000007D
:10453000000000000000000080808080808080807B
:104540000002020400000000000000000000000063
:1045500000008080808000000019242222223F2059
:1045600008F8008080000000003F112020110E009C
:104570000000008080800000000E1120202011002B
:10458000000000808088F800000E112020103F20DD
:104590000000808080800000001F22222222130061
:1045A000008080F0888888180020203F20200000AC
:1045B0000000808080808000006B94949493600061
:1045C00008F8008080800000203F210000203F206C
:1045D00000809898000000000020203F202000006C
:1045E000000000809898000000C08080807F00005C
:1045F00008F8000080808000203F24022D30200039
:10460000000808F8000000000020203F20200000E3
:104610008080808080808000203F20003F20003FFD
:104620008080008080800000203F210000203F200B
:104630000000808080800000001F202020201F00BC
:10464000808000808000000080FFA12020110E00EB
:104650000000008080808000000E112020A0FF80DC
:10466000808080008080800020203F212000010089
:1046700000008080808080000033242424241900DE
:10468000008080E0808000000000001F20200000EB
:104690008080000000808000001F202020103F202C
:1046A000808080000080808000010E3008060100BC
:1046B00080800080008080800F300C030C300F0061
:1046C00000808000808080000020312E0E3120008C
:1046D000808080000080808080818E7018060100BC
:1046E00000808080808080000021302C22213000DA
:1046F00000000000807C020200000000003F4040FB
:1047000000000000FF00000000000000FF000000AB
:104710000002027C800000000040403F00000000DA
:104720000006010102020404000000000000000075
:104730001060028C0000FE9292929292FE000000A5
:1047400004047E01407E42427E427E42427E400020
:104750000000FC242424FC252624FC24242404001A
:1047600040308F80844C55252525554C8080800015
:104770001060028C00FE929292929292FE000000D3
:1047800004047E014448507F40407F50484440002C
:1047900000040474545455565454547404040000D2
:1047A000848341211D05050505057D818185E30083
:1047B0004040424458C0407F40C0504846404000BE
:1047C0008080402018070000003F404040407800B3
:1047D00000FE424242FE0042A29E82A2C2BE0000F1
:1047E000806F080828CF00002FC8080828CF0000D5
:1047F0000004047454545556545454740404000072
:10480000848341211D05050505057D818185E30022
:104810001010D0FF9014E4AFA4A4A4AFE4040000EF
:10482000040300FF00894B2A1A0E1A2A4B888000C5
:10483000101090909090901010FF10101116100012
:10484000002060203F10101000030C102040F800E2
:10485000000000F8888C8A89888888F800000000A9
:10486000000000FF44444444444444FF000000006E
:104870004044C4444444401010FF101010F00000A5
:10488000103C131014B840300E014080403F00002F
:1048900000002424242424FC2222222322000000BD
:1048A000020202020242827F0202020202020200AD
:1048B0004044C4444444401010FF101010F0000065
:1048C000103C131014B840300E014080403F0000EF
:1048D00004040484E43C2724242424E40404040081
:1048E00004020100FF0909090949897F000000004D
:1048F000000000000000C03FC000000000000000F9
:10490000804020100C03000000030C1020408000A9
:104910000040424242C27E42C24242424040000007
:10492000804020100C0300003F40404040700000D9
:10493000000000000000C03FC000000000000000B8
:10494000804020100C03000000030C102040800069
:10495000003E22E2223E00FE2222222222E2020029
:10496000203F201F1111007F44444444444740002D
:10497000040404F484D4A5A6A4D484F40404040098
:1049800000FE0202123A1613121A3242827E000010
:10499000000000808080BCFCFCBC808080000000A7
:1049A0000000000000003E03033E00000000000085
:1049B000000022322AA6A262211109810100000012
:1049C000004222130B42827E02020A12234600009A
:1049D0002030AC63300088C8A8998E88A8C88800A9
:1049E00022672212128040300F00003F40407100C9
:1049F000404042CC0040A09E8282829EA0202000A7
:104A00000000003F908840432C10284641808000E1
:104A1000001715D55557557D555755D51517000015
:104A20004040407F555555555555557F40404000B5
:104A3000000000FE929292FE929292FE0000000010
:104A400008080484621E010001FE02040408080034
:104A50000202E22222F22E2222E22222E2020200BC
:104A60000000FF40407F4949497F4040FF0000006F
:104A700000F80122A0A2A222FE22AA3202FE000019
:104A800000FF0010130A4B20170C133880FF0000A2
:104A9000008060F80704E4A4A4BFA4A4E404000018
:104AA000010000FF40407F4A4A4A4A4A7F40400096
:104AB00000FC848484FC001010101010FF10100003
:104AC000003F1010103F0000010640807F000000F2
:104AD00000F8010600F0121212F2020202FE0000BB
:104AE00000FF0000001F1111111F0040807F000017
:104AF00000504CC878C84800F88888F800000000CA
:104B00000002013E2A2A2B2A2A2A3E000000000029
:104B10000010D85450D8003C5048446000000000B9
:104B200000003F05253F001F282422380000000018
:104B300000000040605048444040405060C00000C9
:104B4000000000003F111111111111113F00000070
:104B5000000000E000FC4020080808F808080000F9
:104B600000000020180708300020203F000000004F
:104B70000C4D0008000000000000000000000000D4
:104B8000000000000002000018000000000000000B
:104B900000000000004D00080000000000000000C0
:104BA00000000000000000000002000023000000E0
:104BB0000000000000000000F44C000800000000AD
:104BC00000000000000000000000000000020000E3
:104BD000120000000000000000000000EC4C000883
:104BE00000000000000000000000000000000000C5
:104BF00000020000110000000000000000000000A2
:104C0000BC4C000800000000000000000000000094
:104C1000000000000002000028000000000000006A
:104C200000000000184D0008000000000000000017
:104C3000000000000000000000020000080000006A
:104C40000000000000000000E04C00080000000030
:104C50000000000000000000000000000000000054
:104C6000D44C00080000000000000000000000001C
:104C70000000000000000000C84C00080000000018
:104C80000000000000000000000000000000000024
:104C9000010202030405060708090A0B0C0D0E0F9A
:104CA00010100000000000000000010203040607CD
:104CB0000809000000000102030400004B65795F51
:104CC0005441534B000000006C6564517565756577
:104CD00000000000736572766F51756575650000A0
:104CE0006D6F746F72517565756500004C45445465
:104CF00061736B00536572766F5461736B000000D3
:104D00004D6F746F725461736B000000646566616F
:104D1000756C745461736B004F4C45447461736BD4
:104D200000000000444D000800000020BC0000000E
:104D3000EC250008004E0008BC0000203C3A0000B2
:104D4000FC2500080000000000000000000000003A
:104D50000000000000000000000000000000000053
:104D60000000000000000000000000000100000042
:104D7000100000000000000000127A000000000097
:104D80000000000000000000000000000000000023
:104D90000000000000000000000000000000000013
:104DA0000000000000000000000000000000000003
:104DB00000000000000000000000000000000000F3
:104DC00000000000000000000000000000000000E3
:104DD00000000000000000000000000000000000D3
:104DE00000000000000000000000000000000000C3
:104DF00000000000AAAAAAAA00000000000000000B
:04000005080000ED02
:00000001FF
